S01100002E2E2F50726F746575732E73313966
S32D0000C000000000205DC2000011C3000017C300001DC3000023C3000029C3000000000000000000000000000073
S32D0000C028000000002FC3000035C30000000000003BC3000041C300001D130100291301003513010041130100F2
S32D0000C0504D1301005913010065130100711301007D1301008913010095130100A1130100AD130100B9130100DC
S32D0000C078C5130100D1130100DD130100E9130100F5130100011401000D140100191401002514010031140100FF
S32D0000C0A03D1401004914010055140100611401006D1401007914010085140100911401009D140100A914010022
S32D0000C0C8B5140100C1140100CD140100D9140100E5140100F1140100FD14010009150100151501002115010047
S32D0000C0F02D150100ED9901003915010045150100511501005D1501006915010075150100811501008D15010090
S32D0000C11899150100A5150100B1150100BD150100C9150100D5150100E1150100ED150100F91501000516010006
S32D0000C140111601001D1601002916010035160100F16C0100411601004D1601005916010065160100711601005B
S32D0000C1687D1601008916010095160100A1160100AD160100B9160100C5160100D1160100DD160100E9160100C5
S32D0000C190F5160100011701000D1701009164010059630100F5630100A110010031650100191701002517010074
S32D0000C1B831170100E4D6020000000020D0160000E4D602000000FF1F00000000D0160020B40600000000FF1F96
S32D0000C1E00000000080B489B000AFF860B9607A60BB68FB61FB68BB6100237B617A697B689A420BD2BA69131DFB
S32D0000C208BB61FB69191DF96112681A607B6904337B61EFE700BF2437BD4680BC704780B485B000AF786039609E
S32D0000C2307B68FB600023BB60BA683B689A4208D2FB681A1DFA6000221A60BB680433BB60F2E700BF1437BD46FE
S32D0000C25880BC704780B586B000AF72B6234B4CF220521A80214B4DF628121A80204B4FF4E9721A801F4B7B615F
S32D0000C2807B691F4A934214D27B691A1D7A611B683B617B691A1D7A611B68FB607B691A1D7A611B68BB60BA68E9
S32D0000C2A8F9683869FFF79AFFE6E77B69134A93420ED27B691A1D7A611B68FB607B691A1D7A611B68BB60B9688B
S32D0000C2D0F868FFF7A8FFECE70B4B7B600B4A7B681A6017F06DFF62B604F0A2FF04F094FEFEE700BF0E200540D0
S32D0000C2F800200540BCC10000D4C10000E4C1000008ED00E000C0000080B400AFFEE780B400AFFEE780B400AFF4
S32D0000C320FEE780B400AFFEE780B400AFFEE780B400AFFEE780B400AFFEE780B400AFFEE780B400AFFEE780B426
S32D0000C34800AFFEE7FFFFFFFFFFFFFFFFFFFFFFFFFFFFFFFFFFFFFFFFFFFFFFFFFFFFFFFFFFFFFFFFFFFFFFFF57
S32D0000C370FFFFFFFFFFFFFFFFFFFFFFFFFFFFFFFFFFFFFFFFFFFFFFFFFFFFFFFFFFFFFFFFFFFFFFFFFFFFFFFFC7
S32D0000C398FFFFFFFFFFFFFFFFFFFFFFFFFFFFFFFFFFFFFFFFFFFFFFFFFFFFFFFFFFFFFFFFFFFFFFFFFFFFFFFF9F
S32D0000C3C0FFFFFFFFFFFFFFFFFFFFFFFFFFFFFFFFFFFFFFFFFFFFFFFFFFFFFFFFFFFFFFFFFFFFFFFFFFFFFFFF77
S32D0000C3E8FFFFFFFFFFFFFFFFFFFFFFFFFFFFFFFFFFFFFFFFFFFFFFFFFFFFFFFFFFFFFFFFFFFFFFFFFEFFFFFF50
S32D0000C44010B5054C237833B9044B13B10448AFF300800123237010BDD01600200000000054D5020008B5034BF0
S32D0000C4681BB103490348AFF3008008BD00000000D416002054D5020084B080B500AF07F1080C8CE80F00D7F8B1
S32D0000C490F430002B05D0084907F108000CF078FE04E0064907F108000CF072FE00BFBD46BDE8804004B0704766
S32D0000C4B88CA9020094A90200B0B5ADF5EB6D06AF002185480BF02FFA07F2446300241D46002C05DB28460CF01D
S32D0000C4E07CFCEC35013CF7E707F5E863A3F588737C4A1C4615460FCD0FC42B68236007F24460794B05934FF41C
S32D0000C5080043049307F5C66303930123029301230193C92300930123012201210CF028FF07F2446318460CF0FA
S32D0000C530DBFC07F1A80305241D46002C05DB28460CF04BFCEC35013CF7E707F5E863A3F5E763664A1846114650
S32D0000C558A0231A4618F0A4F907F1A800604B05936FF07F43049307F1080303930123029301230193142300937E
S32D0000C5802823022204210CF0F7FE4FF4004154480BF029FADE23DC22554951480BF036FA51494F480BF01FFA24
S32D0000C5A8DE23002251494C480BF02CFA0A2150480AF020FD0023C7F83C374FF00003C7F834374FF00003C7F857
S32D0000C5D03037D7F83C37002B7AD1D7F83417D7F8300716F035FA03461C4644480DF0A4F803461946204616F0E5
S32D0000C5F823F90346C7F830374FF07E51D7F8340716F01AF90346C7F83437D7F83417D7F8300716F0CDFA0346B0
S32D0000C620C7F83037DE234822D7F830172C480BF011FA3A463B1D194629480BF0A5FA0346002BC6D00023C7F89D
S32D0000C6483837D7F83837072BBFDC07F1A802D7F83837EC2101FB03F3D01807F5E863A3F23C73196807F5E86330
S32D0000C670A3F5E8631A6800230CF0C4FC0346002B14BF01230023DBB2002B1AD0D7F838370133C7F83C3707F18C
S32D0000C698A802D7F83837EC2101FB03F3D01807F5E863A3F23C73196807F5E863A3F5E8631B681A460CF040FD53
S32D0000C6C005E0D7F838370133C7F83837BDE780E7D7F83C37184607F5E867BD46B0BD00BFDC190020B8A902002A
S32D0000C6E800D7FF00CCA902009CA90200A8A90200D8190020281A0020B0B5ADF5066D06AF07F63403AC4A002150
S32D0000C710184605F015F807F62C03A94A0121184605F00EF807F62403A54A0221184605F007F807F61C03A24A71
S32D0000C7380321184605F000F80021A0480BF0F3F807F5E66300241D46002C05DB28460CF040FBEC35013CF7E7BC
S32D0000C76007F64803A3F59673974A1C4615460FCD0FC42B68236007F5E660944B05936FF07F43049307F21C7366
S32D0000C78803930123029301230193C92300930123012201210CF0ECFD07F5C66300241D46002C05DB28460CF08D
S32D0000C7B014FBEC35013CF7E707F64803A3F50B73834A1C4615460FCD0FC42B68236007F5C6607E4B05936FF081
S32D0000C7D87F43049307F21C6303934FF48273029301230193C92300930123012201210CF0BFFD07F51B730324F6
S32D0000C8001D46002C05DB28460CF0E7FAEC35013CF7E707F64803A3F22C636E4A1846114650231A4618F040F828
S32D0000C82807F51B70674B0593FF23049307F5077303933C23029301230193012300932823022202210CF094FDCA
S32D0000C85007F1440301241D46002C05DB28460CF0BCFAEC35013CF7E707F64803A3F62C03594A1C4615460FCD3F
S32D0000C8780FC40FCD0FC495E8030084E8030007F14400504B05934FF47F03049307F11C0303930123029340F2BE
S32D0000C8A005130193012300932823012202210CF063FD0A2149480AF0A1FB0123C7F8443807F64803A3F6440341
S32D0000C8C81A460023136053609360D360D7F84438012B40F06C8107F1140207F11803194636480BF04DF9034657
S32D0000C8F0002BEFD00023C7F84038D7F84038032B6EDC07F51B72D7F84038EC2101FB03F3D01807F64803A3F580
S32D0000C9180363196807F64803A3F634031A6800230CF06CFB0346002B14BF01230023DBB2002B3BD007F6480351
S32D0000C940A3F64403D7F8402853F82230002B09D107F64803A3F64403D7F84028012143F8221012E007F64803E8
S32D0000C968A3F64403D7F8402853F82230002B08D007F64803A3F64403D7F84028002143F8221007F51B72D7F8A5
S32D0000C9904038EC2101FB03F3D01807F64803A3F50363196807F64803A3F634031B681A460CF0C6FBD7F8403854
S32D0000C9B80133C7F840389CE70000A040DC1900206CAA020000D7FF0080AA020094AA0200E4AA0200D819002073
S32D0000C9E00023C7F83C38D7F83C38012B00F3B88007F14402D7F83C38EC2101FB03F3D01807F64803A3F503638B
S32D0000CA08196807F64803A3F634031A6800230CF0F5FA0346002B14BF01230023DBB2002B00F0948007F6480345
S32D0000CA30A3F644031B68012B10D1D7F83C386FF0630202FB03F33233184615F0ADFF024607F6340311461846C9
S32D0000CA5804F0F2FE07F64803A3F644035B68012B10D1D7F83C386FF0630202FB03F33233184615F095FF024636
S32D0000CA8007F62C031146184604F0DAFE07F64803A3F644039B68012B10D1D7F83C386FF0630202FB03F3323344
S32D0000CAA8184615F07DFF024607F624031146184604F0C2FE07F64803A3F64403DB68012B10D1D7F83C386FF092
S32D0000CAD0630202FB03F33233184615F065FF024607F61C031146184604F0AAFE07F14402D7F83C38EC2101FB75
S32D0000CAF803F3D01807F64803A3F50363196807F64803A3F634031B681A460CF015FB07F14402D7F83C38EC21D6
S32D0000CB2001FB03F3134418460CF026FA07F63403184604F043FE07F62C03184604F03EFE07F62403184604F02D
S32D0000CB4839FE07F61C03184604F034FED7F83C380133C7F83C3842E707F64803A3F50363196807F64803A3F66D
S32D0000CB7034031A6807F5C66000230CF043FA0346002B14BF01230023DBB2002B3FF4A2AE07F64803A3F5036351
S32D0000CB98196807F64803A3F634031A6807F5C66318460CF0C9FA0023C7F844388EE6D7F84438184607F648074B
S32D0000CBC0BD46B0BDB0B5ADF55B6D06AF07F67C53002118460AF086FA07F55763012118460AF080FA07F6645330
S32D0000CBE8022118460AF07AFA07F65853032118460AF074FA07F64C53042118460AF06EFA07F5546305211846E6
S32D0000CC100AF068FA07F63453062118460AF062FA07F62853072118460AF05CFA0021B7480AF07DFE07F63C43DC
S32D0000CC3800241D46002C05DB28460CF0CAF8EC35013CF7E707F69853A3F5B873AE4A1C4615460FCD0FC42B6831
S32D0000CC60236007F63C40AB4B05936FF07F43049307F6284303930123029301230193C92300930123012201210D
S32D0000CC880CF076FB07F63C3300241D46002C05DB28460CF09EF8EC35013CF7E707F69853A3F51C739A4A1C4681
S32D0000CCB015460FCD0FC42B68236007F63C30954B05936FF07F43049307F6283303934FF482730293012301932A
S32D0000CCD8C92300930123012201210CF049FB07F5727307241D46002C05DB28460CF071F8EC35013CF7E707F67F
S32D0000CD009853A3F52763854A18461146A0231A4617F0CAFD07F572707E4B0593FF23049307F54A7303933C23DD
S32D0000CD28029301230193012300932823022204210CF01EFB07F5A87301241D46002C05DB28460CF046F8EC35BC
S32D0000CD50013CF7E707F69853A3F54763704A1C4615460FCD0FC40FCD0FC495E8030084E8030007F5A870674BE6
S32D0000CD7805934FF47F03049307F5947303930123029340F205130193292300932823012202210CF0EDFA07F11E
S32D0000CDA03C0300241D46002C05DB28460CF015F8EC35013CF7E707F69853A3F55763594A1C4615460FCD0FC497
S32D0000CDC82B68236007F13C00504B05934FF47F03049307F1280303930123029340F20513019304230093C62371
S32D0000CDF0012201210CF0C0FA0A214B480AF0FEF80223C7F8943D0023C7F8883D07F69853A3F698531846202303
S32D0000CE181A46002117F05AFED7F8943D022B40F0BA8107F1200207F12403194635480AF0A7FE0346002BEFD0ED
S32D0000CE400023C7F8903DD7F8903D072B6EDC07F57272D7F8903DEC2101FB03F3D01807F69853A3F674531968D1
S32D0000CE6807F69853A3F678531A6800230CF0C6F80346002B14BF01230023DBB2002B3BD007F69853A3F6985334
S32D0000CE90D7F8902D53F82230002B09D107F69853A3F69853D7F8902D012143F8221012E007F69853A3F6985361
S32D0000CEB8D7F8902D53F82230002B08D007F69853A3F69853D7F8902D002143F8221007F57272D7F8903DEC2111
S32D0000CEE001FB03F3D01807F69853A3F67453196807F69853A3F678531B681A460CF020F9D7F8903D0133C7F8AE
S32D0000CF08903D9CE7DC1900200CAB020000D7FF0080AA020020AB0200E4AA0200C0AB0200D81900200023C7F81E
S32D0000CF308C3DD7F88C3D012B00F3068107F5A872D7F88C3DEC2101FB03F3D01807F69853A3F67453196807F671
S32D0000CF589853A3F678531A6800230CF04FF80346002B14BF01230023DBB2002B00F0E28007F5A872D7F88C3D2E
S32D0000CF80EC2101FB03F3D01807F69853A3F67453196807F69853A3F678531A6801230CF031F80346002B14BF75
S32D0000CFA801230023DBB2002B00F0B98007F1200207F1240319467B480AF0E2FDD7F8883D5A1CD7F88C3D5B0002
S32D0000CFD0D31AC7F8883DD7F8883D002B03DA0023C7F8883D06E0D7F8883DB42B02DDB423C7F8883D07F13C03B5
S32D0000CFF8D7F8881D18460CF07FF907F69853A3F698531B68012B0AD1D7F8880D15F0C8FC024607F67C53114637
S32D0000D02018460AF07BF807F69853A3F698535B68012B0AD1D7F8880D15F0B6FC024607F55763114618460AF019
S32D0000D04869F807F69853A3F698539B68012B0AD1D7F8880D15F0A4FC024607F66453114618460AF057F807F6E3
S32D0000D0709853A3F69853DB68012B0AD1D7F8880D15F092FC024607F65853114618460AF045F807F69853A3F685
S32D0000D09898531B69012B0AD1D7F8880D15F080FC024607F64C53114618460AF033F807F69853A3F698535B6921
S32D0000D0C0012B0AD1D7F8880D15F06EFC024607F55463114618460AF021F807F69853A3F698539B69012B0AD12E
S32D0000D0E8D7F8880D15F05CFC024607F63453114618460AF00FF807F69853A3F69853DB69012B7FF435AFD7F8D5
S32D0000D110880D15F049FC024607F628531146184609F0FCFF28E707F5A872D7F88C3DEC2101FB03F31344184638
S32D0000D1380BF01EFFD7F88C3D0133C7F88C3DF4E607F69853A3F67453196807F69853A3F678531A6807F63C3083
S32D0000D16000230BF04FFF0346002B14BF01230023DBB2002B3FF454AE07F69853A3F67453196807F69853A3F670
S32D0000D18878531A6807F63C3318460BF0D5FF0023C7F8943D40E6D7F8943D184607F69857BD46B0BDDC1900204B
S32D0000D1B0B0B5ADF58E4D9EB038AF07F58D4303F104030021184608F067FF07F58D430121184608F061FF07F5F6
S32D0000D1D88C4303F17C030221184608F059FF07F58C4303F178030321184608F051FF07F58C4303F174030421B7
S32D0000D200184608F049FF07F58C4303F170030521184608F041FF07F58C4303F16C030621184608F039FF07F595
S32D0000D2288C4303F168030721184608F031FF07F58C4303F164030821184608F029FF07F58C4303F160030921E3
S32D0000D250184608F021FF07F58C4303F15C030A21184608F019FF07F58C4303F158030B21184608F011FF07F5DB
S32D0000D2788C4303F154030C21184608F009FF07F58C4303F150030D21184608F001FF07F58C4303F14C030E2110
S32D0000D2A0184608F0F9FE07F58C4303F148030F21184608F0F1FE07F58C4303F144031021184608F0E9FE07F524
S32D0000D2C88C4303F140031121184608F0E1FE07F58C4303F13C031221184608F0D9FE07F58C4303F1380313213F
S32D0000D2F0184608F0D1FE07F58C4303F134031421184608F0C9FE07F58C4303F130031521184608F0C1FE07F56A
S32D0000D3188C4303F12C031621184608F0B9FE07F58C4303F128031721184608F0B1FE07F58C4303F1240318216B
S32D0000D340184608F0A9FE07F58C4303F120031921184608F0A1FE07F58C4303F11C031A21184608F099FE07F5AF
S32D0000D3688C4303F118031B21184608F091FE07F58C4303F114031C21184608F089FE07F58C4303F110031D2198
S32D0000D390184608F081FE07F58C4303F10C031E21184608F079FE07F58C4303F108031F21184608F071FE0021D0
S32D0000D3B8C6480AF0B8FA07F58A4303F11C0300241D46002C05DB28460BF003FDEC35013CF7E707F58D4303F1B9
S32D0000D3E01803A3F5C873BC4A1C4615460FCD0FC42B68236007F58A4000F11C00B74B05936FF07F43049307F588
S32D0000D4088A4303F1080303930123029301230193C92300930123012201210BF0A9FF07F5884303F11C0300249A
S32D0000D4301D46002C05DB28460BF0CFFCEC35013CF7E707F58D4303F11803A3F52473A44A1C4615460FCD0FC48B
S32D0000D4582B68236007F5884000F11C009D4B05936FF07F43049307F5884303F1080303934FF48273029301233A
S32D0000D4800193C92300930123012201210BF074FF07F5804303F1580303241D46002C05DB28460BF09AFCEC35D0
S32D0000D4A8013CF7E707F58D4303F11803A3F5D2638A4A1846114650231A4617F0F1F907F5804000F15800834B73
S32D0000D4D005934FF47F03049307F5804303F1080303930123029301230193A12300932823042201210BF040FF51
S32D0000D4F807F5455303F11803103B0F241D46002C05DB28460BF065FCEC35013CF7E707F55A5303F11803A3F520
S32D0000D520D263714A184611464FF4A0731A4617F0BBF907F5055303F11803103B0F241D46002C05DB28460BF00E
S32D0000D54848FCEC35013CF7E707F51A5303F11803A3F5D263634A184611464FF4A0731A4617F09EF907F58A5361
S32D0000D57003F11803103B0F241D46002C05DB28460BF02BFCEC35013CF7E707F5B45303F11803A3F5D263564A46
S32D0000D598184611464FF4A0731A4617F081F907F5CC73503B0F241D46002C05DB28460BF010FCEC35013CF7E760
S32D0000D5C007F5D363A3F5D2634A4A184611464FF4A0731A4617F068F90A21474809F00EFD032307F58D4202F135
S32D0000D5E814021360002307F58D4202F11002136007F58D4303F114031B68032B40F0D38407F58D4303F1100344
S32D0000D6101B68032B00F2898001A252F823F000BF31D6000067D600009DD60000FDD6000007F5455000F118005D
S32D0000D6381038284B0593FF23049307F5405303F11803103B039301230293012301930123009350230422042153
S32D0000D6600BF08AFE61E007F5055000F1180010381A4B0593FF23049307F5005303F11803103B03930123029388
S32D0000D68801230193012300935023042204210BF06FFE46E007F58A5000F1180010380D4B0593FF23049307F5ED
S32D0000D6B0805303F11803103B03930123029301230193012300935023042204210BF054FE2BE000BFDC19002077
S32D0000D6D8D4AB020000D7FF0080AA0200E8AB020038AC020078AD0200B8AE0200F8AF0200D819002007F5CC70A5
S32D0000D7005038854B0593FF23049307F11803103B03930123029301230193012300935023042204210BF028FE57
S32D0000D72800BF07F58D4303F110031B6807F58D4202F10802136007F58D4303F110031A6807F58D4303F1080363
S32D0000D7501B689A427FF450AF07F58D4303F110031B68002B40F0DA8007F58D4303F10403184608F06DFD0346FF
S32D0000D77807F55A5202F11802A2F5AA643793684604F57073DC22194617F08AF804F56C730FCBFEF771FE07F5DD
S32D0000D7A08D43184608F054FD034607F55A5202F11802A2F5AA643793684604F2AC43DC22194617F071F804F221
S32D0000D7C89C430FCBFEF758FE07F58C4303F17C03184608F039FD034607F55A5202F11802A2F5AA64379368464A
S32D0000D7F004F5B363DC22194617F056F804F5B1630FCBFEF73DFE07F58C4303F17803184608F01EFD034607F543
S32D0000D8185A5202F11802A2F5AA643793684604F28463DC22194617F03BF804F274630FCBFEF722FE07F58C4311
S32D0000D84003F17403184608F003FD034607F55A5202F11802A2F5AA643793684604F53263DC22194617F020F8D4
S32D0000D86804F531630FCBFEF707FE07F58C4303F17003184608F0E8FC034607F55A5202F11802A2F5AA64379358
S32D0000D890684604F60C43DC22194617F005F804F6FC330FCBFEF7ECFD07F58C4303F16C03184608F0CDFC03469B
S32D0000D8B807F55A5202F11802A2F5AA643793684604F6F843DC22194616F0EAFF04F6E8430FCBFEF7D1FD07F531
S32D0000D8E08C4303F16803184608F0B2FC034607F55A5202F11802A2F5AA643793684604F6E453DC22194616F039
S32D0000D908CFFF04F6D4530FCBFEF7B6FD94E200BF00D7FF0007F58D4303F110031B68012B40F0D98007F58C439F
S32D0000D93003F16403184608F08BFC034607F51A5202F11802A2F5AA643793684604F57073DC22194616F0A8FFD0
S32D0000D95804F56C730FCBFEF78FFD07F58C4303F16003184608F070FC034607F51A5202F11802A2F5AA6437935D
S32D0000D980684604F2AC43DC22194616F08DFF04F29C430FCBFEF774FD07F58C4303F15C03184608F055FC0346D4
S32D0000D9A807F51A5202F11802A2F5AA643793684604F5B363DC22194616F072FF04F5B1630FCBFEF759FD07F5AE
S32D0000D9D08C4303F15803184608F03AFC034607F51A5202F11802A2F5AA643793684604F28463DC22194616F064
S32D0000D9F857FF04F274630FCBFEF73EFD07F58C4303F15403184608F01FFC034607F51A5202F11802A2F5AA64EA
S32D0000DA203793684604F53263DC22194616F03CFF04F531630FCBFEF723FD07F58C4303F15003184608F004FC50
S32D0000DA48034607F51A5202F11802A2F5AA643793684604F60C43DC22194616F021FF04F6FC330FCBFEF708FD0C
S32D0000DA7007F58C4303F14C03184608F0E9FB034607F51A5202F11802A2F5AA643793684604F6F843DC221946D3
S32D0000DA9816F006FF04F6E8430FCBFEF7EDFC07F58C4303F14803184608F0CEFB034607F51A5202F11802A2F5FA
S32D0000DAC0AA643793684604F6E453DC22194616F0EBFE04F6D4530FCBFEF7D2FCB0E107F58D4303F110031B6890
S32D0000DAE8022B40F0D98007F58C4303F14403184608F0AAFB034607F5B45202F11802A2F5AA643793684604F5EB
S32D0000DB107073DC22194616F0C7FE04F56C730FCBFEF7AEFC07F58C4303F14003184608F08FFB034607F5B4525E
S32D0000DB3802F11802A2F5AA643793684604F2AC43DC22194616F0ACFE04F29C430FCBFEF793FC07F58C4303F1B1
S32D0000DB603C03184608F074FB034607F5B45202F11802A2F5AA643793684604F5B363DC22194616F091FE04F524
S32D0000DB88B1630FCBFEF778FC07F58C4303F13803184608F059FB034607F5B45202F11802A2F5AA6437936846FF
S32D0000DBB004F28463DC22194616F076FE04F274630FCBFEF75DFC07F58C4303F13403184608F03EFB034607F5D4
S32D0000DBD8B45202F11802A2F5AA643793684604F53263DC22194616F05BFE04F531630FCBFEF742FC07F58C4340
S32D0000DC0003F13003184608F023FB034607F5B45202F11802A2F5AA643793684604F60C43DC22194616F040FEFC
S32D0000DC2804F6FC330FCBFEF727FC07F58C4303F12C03184608F008FB034607F5B45202F11802A2F5AA643793A5
S32D0000DC50684604F6F843DC22194616F025FE04F6E8430FCBFEF70CFC07F58C4303F12803184608F0EDFA0346D1
S32D0000DC7807F5B45202F11802A2F5AA643793684604F6E453DC22194616F00AFE04F6D4530FCBFEF7F1FBCFE02B
S32D0000DCA007F58D4303F110031B68032B40F0C88007F58C4303F12403184608F0C9FA034607F5D362A2F5AA643C
S32D0000DCC83793684604F57073DC22194616F0E8FD04F56C730FCBFEF7CFFB07F58C4303F12003184608F0B0FA3F
S32D0000DCF0034607F5D362A2F5AA643793684604F2AC43DC22194616F0CFFD04F29C430FCBFEF7B6FB07F58C433B
S32D0000DD1803F11C03184608F097FA034607F5D362A2F5AA643793684604F5B363DC22194616F0B6FD04F5B1631A
S32D0000DD400FCBFEF79DFB07F58C4303F11803184608F07EFA034607F5D362A2F5AA643793684604F28463DC2234
S32D0000DD68194616F09DFD04F274630FCBFEF784FB07F58C4303F11403184608F065FA034607F5D362A2F5AA64C9
S32D0000DD903793684604F53263DC22194616F084FD04F531630FCBFEF76BFB07F58C4303F11003184608F04CFA4B
S32D0000DDB8034607F5D362A2F5AA643793684604F60C43DC22194616F06BFD04F6FC330FCBFEF752FB07F58C4382
S32D0000DDE003F10C03184608F033FA034607F5D362A2F5AA643793684604F6F843DC22194616F052FD04F6E843EC
S32D0000DE080FCBFEF739FB07F58C4303F10803184608F01AFA034607F5D362A2F5AA643793684604F6E453DC22EF
S32D0000DE30194616F039FD04F6D4530FCBFEF720FB07F11802183A07F11803143B19465D4809F09AFE0346002B4F
S32D0000DE583FF471AC002307F58D4202F10C02136007F58D4303F10C031B68032B61DC07F5804202F1580207F526
S32D0000DE808D4303F10C031B68EC2101FB03F3D01807F5D363A3F29463196807F5D363A3F5D3631A6800230BF058
S32D0000DEA8ADF80346002B14BF01230023DBB2002B33D007F5804202F1580207F58D4303F10C031B68EC2101FBF8
S32D0000DED003F3D01807F5D363A3F29463196807F5D363A3F5D3631B681A460BF029F907F5804202F1580207F500
S32D0000DEF88D4303F10C031B68EC2101FB03F3134418460BF035F807F58D4303F10C031B6807F58D4202F11002A8
S32D0000DF20136007F58D4303F10C031B68013307F58D4202F10C02136096E707F5D363A3F29463196807F5D363AD
S32D0000DF48A3F5D3631A6807F5884000F11C0000230BF054F80346002B14BF01230023DBB2002B3FF4E8AB07F518
S32D0000DF70D363A3F29463196807F5D363A3F5D3631A6807F5884303F11C0318460BF0D8F8002307F58D4202F1DA
S32D0000DF98140213604FF0FF3307F58D4202F110021360FFF7C8BB07F58D4303F114031B68184607F58D471837CE
S32D0000DFC0BD46B0BDDC190020B0B5ADF58E4D8CB006AF07F58E4303F104030021184608F05BF807F58E4301215A
S32D0000DFE8184608F055F807F58D4303F17C030221184608F04DF807F58D4303F178030321184608F045F807F57D
S32D0000E0108D4303F174030421184608F03DF807F58D4303F170030521184608F035F807F58D4303F16C030621C5
S32D0000E038184608F02DF807F58D4303F168030721184608F025F807F58D4303F164030821184608F01DF807F5C2
S32D0000E0608D4303F160030921184608F015F807F58D4303F15C030A21184608F00DF807F58D4303F158030B21F2
S32D0000E088184608F005F807F58D4303F154030C21184607F0FDFF07F58D4303F150030D21184607F0F5FF07F5FC
S32D0000E0B08D4303F14C030E21184607F0EDFF07F58D4303F148030F21184607F0E5FF07F58D4303F14403102113
S32D0000E0D8184607F0DDFF07F58D4303F140031121184607F0D5FF07F58D4303F13C031221184607F0CDFF07F53C
S32D0000E1008D4303F138031321184607F0C5FF07F58D4303F134031421184607F0BDFF07F58D4303F1300315213F
S32D0000E128184607F0B5FF07F58D4303F12C031621184607F0ADFF07F58D4303F128031721184607F0A5FF07F581
S32D0000E1508D4303F124031821184607F09DFF07F58D4303F120031921184607F095FF07F58D4303F11C031A216C
S32D0000E178184607F08DFF07F58D4303F118031B21184607F085FF07F58D4303F114031C21184607F07DFF07F5C7
S32D0000E1A08D4303F110031D21184607F075FF07F58D4303F10C031E21184607F06DFF07F58D4303F108031F2199
S32D0000E1C8184607F065FF07F58D4303F104030021184608F0F5F907F58D430121184608F0EFF907F58C4303F159
S32D0000E1F07C030221184608F0E7F907F58C4303F178030321184608F0DFF907F58C4303F174030421184608F0EC
S32D0000E218D7F907F58C4303F170030521184608F0CFF907F58C4303F16C030621184608F0C7F907F58C4303F168
S32D0000E24068030721184608F0BFF907F58C4303F164030821184608F0B7F907F58C4303F160030921184608F018
S32D0000E268AFF907F58C4303F15C030A21184608F0A7F907F58C4303F158030B21184608F09FF907F58C4303F1AE
S32D0000E29054030C21184608F097F907F58C4303F150030D21184608F08FF907F58C4303F14C030E21184608F045
S32D0000E2B887F907F58C4303F148030F21184608F07FF907F58C4303F144031021184608F077F907F58C4303F1F4
S32D0000E2E040031121184608F06FF907F58C4303F13C031221184608F067F907F58C4303F138031321184608F072
S32D0000E3085FF907F58C4303F134031421184608F057F907F58C4303F130031521184608F04FF907F58C4303F139
S32D0000E3302C031621184608F047F907F58C4303F128031721184608F03FF907F58C4303F124031821184608F09E
S32D0000E35837F907F58C4303F120031921184608F02FF907F58C4303F11C031A21184608F027F907F58C4303F17F
S32D0000E38018031B21184608F01FF907F58C4303F114031C21184608F017F907F58C4303F110031D21184608F0CB
S32D0000E3A80FF907F58C4303F10C031E21184608F007F907F58C4303F108031F21184608F0FFF80021C64809F05D
S32D0000E3D0AEFA07F58A4303F11C0300241D46002C05DB28460AF0F9FCEC35013CF7E707F58E4303F11803A3F5FB
S32D0000E3F80473BC4A1C4615460FCD0FC42B68236007F58A4000F11C00B74B05936FF07F43049307F58A4303F116
S32D0000E420080303930123029301230193C92300930123012201210AF09FFF07F5884303F11C0300241D46002CAF
S32D0000E44805DB28460AF0C5FCEC35013CF7E707F58E4303F11803A3F54473A44A1C4615460FCD0FC42B682360C6
S32D0000E47007F5884000F11C009D4B05936FF07F43049307F5884303F1080303934FF48273029301230193C923A8
S32D0000E49800930123012201210AF06AFF07F5804303F1580303241D46002C05DB28460AF090FCEC35013CF7E723
S32D0000E4C007F58E4303F11803A3F5E2638A4A1846114650231A4616F0E7F907F5804000F15800834B05934FF485
S32D0000E4E87F03049307F5804303F1080303930123029301230193A12300932823042201210AF036FF07F545537B
S32D0000E51003F11803103B0F241D46002C05DB28460AF05BFCEC35013CF7E707F55C5303F11803A3F5E263714A94
S32D0000E538184611464FF4A0731A4616F0B1F907F5055303F11803103B0F241D46002C05DB28460AF03EFCEC3587
S32D0000E560013CF7E707F51C5303F11803A3F5E263634A184611464FF4A0731A4616F094F907F58A5303F1180388
S32D0000E588103B0F241D46002C05DB28460AF021FCEC35013CF7E707F5B85303F11803A3F5E263564A184611466F
S32D0000E5B04FF4A0731A4616F077F907F5CC73503B0F241D46002C05DB28460AF006FCEC35013CF7E707F5E363C1
S32D0000E5D8A3F5E2634A4A184611464FF4A0731A4616F05EF90A21474808F004FD042307F58E4202F114021360BA
S32D0000E600002307F58E4202F11002136007F58E4303F114031B68042B40F0D18307F58E4303F110031B68032BF2
S32D0000E62800F2898001A252F823F000BF45E600007BE60000B1E6000011E7000007F5455000F118001038284B9A
S32D0000E6500593FF23049307F5405303F11803103B03930123029301230193012300935023042204210AF080FE6E
S32D0000E67861E007F5055000F1180010381A4B0593FF23049307F5005303F11803103B039301230293012301932B
S32D0000E6A0012300935023042204210AF065FE46E007F58A5000F1180010380D4B0593FF23049307F5805303F1C1
S32D0000E6C81803103B03930123029301230193012300935023042204210AF04AFE2BE000BFDC19002038B1020036
S32D0000E6F000D7FF0080AA0200E8AB020038AC020078AD0200B8AE0200F8AF0200D819002007F5CC705038B54B76
S32D0000E7180593FF23049307F11803103B03930123029301230193012300935023042204210AF01EFE00BF07F5D7
S32D0000E7408E4303F110031B6807F58E4202F10802136007F58E4303F110031A6807F58E4303F108031B689A4293
S32D0000E7687FF450AF07F58E4303F110031B68002B40F0978007F58D4303F10403184607F02FFF024607F5455322
S32D0000E79003F11803103B03F56C73114618460AF029FD07F58D43184607F01EFF024607F5455303F11803103BE1
S32D0000E7B803F29C43114618460AF018FD07F58C4303F17C03184607F00BFF024607F5455303F11803103B03F5D0
S32D0000E7E0B163114618460AF005FD07F58C4303F17803184607F0F8FE024607F5455303F11803103B03F27463BF
S32D0000E808114618460AF0F2FC07F58C4303F17403184607F0E5FE024607F5455303F11803103B03F531631146BE
S32D0000E83018460AF0DFFC07F58C4303F17003184607F0D2FE024607F5455303F11803103B03F6FC33114618461D
S32D0000E8580AF0CCFC07F58C4303F16C03184607F0BFFE024607F5455303F11803103B03F6E843114618460AF087
S32D0000E880B9FC07F58C4303F16803184607F0ACFE024607F5455303F11803103B03F6D453114618460AF0A6FCE5
S32D0000E8A8D3E107F58E4303F110031B68012B40F09B8007F58C4303F16403184607F090FE024607F5055303F127
S32D0000E8D01803103B03F56C73114618460AF08AFC07F58C4303F16003184607F07DFE024607F5055303F118030B
S32D0000E8F8103B03F29C43114618460AF077FC07F58C4303F15C03184607F06AFE024607F5055303F11803103BE0
S32D0000E92003F5B163114618460AF064FC07F58C4303F15803184607F057FE024607F5055303F11803103B03F2FF
S32D0000E9487463114618460AF051FC07F58C4303F15403184607F044FE024607F5055303F11803103B03F531639F
S32D0000E970114618460AF03EFC07F58C4303F15003184607F031FE024607F5055303F11803103B03F6FC33114685
S32D0000E99818460AF02BFC07F58C4303F14C03184607F01EFE024607F5055303F11803103B03F6E8431146184684
S32D0000E9C00AF018FC07F58C4303F14803184607F00BFE024607F5055303F11803103B03F6D453114618460AF0EE
S32D0000E9E805FC32E100D7FF0007F58E4303F110031B68022B40F0998007F58C4303F14403184607F0EDFD0246BD
S32D0000EA1007F58A5303F11803103B03F56C73114618460AF0E7FB07F58C4303F14003184607F0DAFD024607F5CB
S32D0000EA388A5303F11803103B03F29C43114618460AF0D4FB07F58C4303F13C03184607F0C7FD024607F58A53EF
S32D0000EA6003F11803103B03F5B163114618460AF0C1FB07F58C4303F13803184607F0B4FD024607F58A5303F1A2
S32D0000EA881803103B03F27463114618460AF0AEFB07F58C4303F13403184607F0A1FD024607F58A5303F11803BD
S32D0000EAB0103B03F53163114618460AF09BFB07F58C4303F13003184607F08EFD024607F58A5303F11803103BCF
S32D0000EAD803F6FC33114618460AF088FB07F58C4303F12C03184607F07BFD024607F58A5303F11803103B03F687
S32D0000EB00E843114618460AF075FB07F58C4303F12803184607F068FD024607F58A5303F11803103B03F6D4535E
S32D0000EB28114618460AF062FB8FE007F58E4303F110031B68032B40F0888007F58C4303F12403184607F04CFD03
S32D0000EB50024607F5CC73503B03F56C73114618460AF048FB07F58C4303F12003184607F03BFD024607F5CC73CE
S32D0000EB78503B03F29C43114618460AF037FB07F58C4303F11C03184607F02AFD024607F5CC73503B03F5B163BB
S32D0000EBA0114618460AF026FB07F58C4303F11803184607F019FD024607F5CC73503B03F27463114618460AF0A9
S32D0000EBC815FB07F58C4303F11403184607F008FD024607F5CC73503B03F53163114618460AF004FB07F58C43CC
S32D0000EBF003F11003184607F0F7FC024607F5CC73503B03F6FC33114618460AF0F3FA07F58C4303F10C031846AA
S32D0000EC1807F0E6FC024607F5CC73503B03F6E843114618460AF0E2FA07F58C4303F10803184607F0D5FC024600
S32D0000EC4007F5CC73503B03F6D453114618460AF0D1FA07F11802183A07F11803143B19465C4808F091FF0346AC
S32D0000EC68002B3FF472AD002307F58E4202F10C02136007F58E4303F10C031B68032B61DC07F5804202F15802D5
S32D0000EC9007F58E4303F10C031B68EC2101FB03F3D01807F5E363A3F21473196807F5E363A3F5E3631A68002378
S32D0000ECB80AF0A4F90346002B14BF01230023DBB2002B33D007F5804202F1580207F58E4303F10C031B68EC21E3
S32D0000ECE001FB03F3D01807F5E363A3F21473196807F5E363A3F5E3631B681A460AF020FA07F5804202F158022B
S32D0000ED0807F58E4303F10C031B68EC2101FB03F3134418460AF02CF907F58E4303F10C031B6807F58E4202F1A5
S32D0000ED301002136007F58E4303F10C031B68013307F58E4202F10C02136096E707F5E363A3F21473196807F511
S32D0000ED58E363A3F5E3631A6807F5884000F11C0000230AF04BF90346002B14BF01230023DBB2002B3FF4E9ACA7
S32D0000ED8007F5E363A3F21473196807F5E363A3F5E3631A6807F5884303F11C0318460AF0CFF9002307F58E42FB
S32D0000EDA802F1140213604FF0FF3307F58E4202F110021360C9E407F58E4303F114031B68184607F58E47183786
S32D0000EDD0BD46B0BDDC190020B0B5ADF5136D06AF0021654808F0A3FD07F61C0300241D46002C05DB284609F0D8
S32D0000EDF8F0FFEC35013CF7E707F61813A3F588735C4A1C4615460FCD0FC42B68236007F61C00594B05936FF02B
S32D0000EE207F43049307F6080303930123029301230193C92300930123012201210AF09CFA07F21C7300241D46D5
S32D0000EE48002C05DB284609F0C4FFEC35013CF7E707F61813A3F50473484A1C4615460FCD0FC42B68236007F2E6
S32D0000EE701C70434B05936FF07F43049307F5E16303934FF48273029301230193C92300930123012201210AF0CD
S32D0000EE986FFA07F2444302241D46002C05DB284609F097FFEC35013CF7E707F61813A3F5A263334A1C46154696
S32D0000EEC00FCD0FC40FCD0FC40FCD0FC495E8070084E8070007F24440294B0593FF23049307F581630393012344
S32D0000EEE8029301230193782300932823032201210AF03EFA07F5A27302241D46002C05DB284609F066FFEC352A
S32D0000EF10013CF7E707F61813A3F501631B4A1C4615460FCD0FC40FCD0FC40FCD0FC495E8070084E8070007F572
S32D0000EF38A270114B0593FF23049307F5847303930123029301230193282300937823032201210AF00DFA07F139
S32D0000EF601C0300241D46002C12DB284609F035FFEC35013CF7E700BFDC1900204CB1020000D7FF0080AA020018
S32D0000EF8860B102009CB1020007F61813A3F511638A4A1C4615460FCD0FC42B68236007F11C00874B05934FF4AE
S32D0000EFB07F03049307F108030393012302930123019302230093C923012201210AF0D4F90A217E4808F012F86D
S32D0000EFD80523C7F814394FF00003C7F810394FF00003C7F80C394FF00003C7F80839D7F81439052B40F0DA802F
S32D0000F00073480AF0C5FA04460D46D7F8100913F087F802460B462046294612F021FF02460B461046194613F086
S32D0000F028B5FB024607F5A273114618460AF0DEF865480AF0E5FA04460D46D7F80C0913F06BF802460B462046C0
S32D0000F050294612F005FF02460B461046194613F099FB024607F5A273EC33114618460AF0C1F857480AF004FBC0
S32D0000F07804460D46D7F8080913F04EF802460B462046294612F0E8FE02460B461046194613F07CFB024607F542
S32D0000F0A0A27303F5EC73114618460AF0A3F83A463B1D1946474808F067FD0346002B9AD007F61813A3F61413A4
S32D0000F0C8196807F61813A3F618131A6807F11C00002309F093FF0346002B14BF01230023DBB2002B37D007F61F
S32D0000F0F01813A3F61413196807F61813A3F618131A6807F11C0318460AF01AF807F11C03184609F031FF2E4883
S32D0000F1180AF03AFA02460B461046194613F036FB0346C7F8103928480AF06AFA02460B461046194613F02AFB84
S32D0000F1400346C7F80C3922480AF09AFA02460B461046194613F01EFB0346C7F8083907F61813A3F61413196840
S32D0000F16807F61813A3F618131A6807F21C70002309F044FF0346002B14BF01230023DBB2002B3FF434AF07F6CE
S32D0000F1901813A3F61413196807F61813A3F618131A6807F21C73184609F0CAFF0023C7F8143920E7D7F814397D
S32D0000F1B8184607F61817BD46B0BD00BFD8B1020000D7FF00D8190020241A0020DC190020B0B5ADF5E56D06AF7D
S32D0000F1E00021B94808F0A3FB07F21C6300241D46002C05DB284609F0F0FDEC35013CF7E707F5E263A3F58473DE
S32D0000F208B04A1C4615460FCD0FC42B68236007F21C60AD4B05936FF07F43049307F5C16303930123029301230C
S32D0000F2300193C92300930123012201210AF09CF807F21C5300241D46002C05DB284609F0C4FDEC35013CF7E747
S32D0000F25807F5E263A3F502739C4A1C4615460FCD0FC42B68236007F21C50974B05936FF07F43049307F5A1633B
S32D0000F28003934FF48273029301230193C92300930123012201210AF06FF807F5AC7303241D46002C05DB2846DD
S32D0000F2A809F097FDEC35013CF7E707F5E263A3F5C163874A1846114650231A4615F0F0FA07F5AC70804B0593AF
S32D0000F2D0FF23049307F5847303930123029301230193A12300932823022202210AF044F807F11C0300241D46A0
S32D0000F2F8002C05DB284609F06CFDEC35013CF7E707F5E263A3F5E163724A1C4615460FCD0FC42B68236007F17D
S32D0000F3201C006B4B05934FF47F03049307F1080303930123029301230193792300935023012201210AF018F8FE
S32D0000F3480A21654807F056FE0623C7F80C370023C7F80837642006F043FED7F80C37062B40F046813A463B1D5B
S32D0000F3701946554808F008FC0346002BF1D007F5E263A3F20C731A6807F5AC73EC331146184609F02FFF07F559
S32D0000F398E263A3F5E2631A6807F5AC7303F531731146184609F022FF07F5E263A3F20C73196807F5E263A3F56E
S32D0000F3C0E2631A6807F11C00002309F01BFE0346002B14BF01230023DBB2002B00F0E18007F5E263A3F20C7323
S32D0000F3E8196807F5E263A3F5E2631A6807F11C03184609F0A1FE07F11C03184609F0B8FDD7F80837002B69D133
S32D0000F41000212D4808F08BFA07F21C602C4B05936FF07F43049307F5C163039301230293012301935023009352
S32D0000F43879230122012109F09BFF07F21C50224B05936FF07F43049307F5A16303934FF48273029301230193F5
S32D0000F4605123009379230122012109F085FF07F5AC70174B0593FF23049307F584730393012302930123019354
S32D0000F48828230093A1230222022109F071FF07F11C000D4B05934FF47F03049307F1080303930123029301232E
S32D0000F4B0019302230093C9230122012109F05CFF0123C7F808376CE0DC190020ECB1020000D7FF0080AA020039
S32D0000F4D800B2020050B20200D8190020D7F80837012B5AD10021464808F01DFA07F21C60444B05936FF07F435D
S32D0000F500049307F5C16303930123029301230193C923009301230122012109F02DFF07F21C503A4B05936FF031
S32D0000F5287F43049307F5A16303934FF48273029301230193C923009301230122012109F017FF07F5AC702F4BB8
S32D0000F5500593FF23049307F5847303930123029301230193A123009328230222022109F003FF07F11C00254BDA
S32D0000F57805934FF47F03049307F10803039301230293012301937923009350230122012109F0EEFE0023C7F8B9
S32D0000F5A0083707F5E263A3F20C73196807F5E263A3F5E2631A6807F21C50002309F022FD0346002B14BF01237D
S32D0000F5C80023DBB2002B3FF4C8AE07F5E263A3F20C73196807F5E263A3F5E2631A6807F21C53184609F0A8FDB7
S32D0000F5F00023C7F80C37B4E6D7F80C37184607F5E267BD46B0BD00BFDC19002000D7FF00B0B5ADF5205D8EB09D
S32D0000F61806AF07F5205303F108030021184607F0C7F807F5205303F104030121184607F0BFF807F52053022142
S32D0000F640184607F0B9F807F51F5303F13C030321184607F0B1F807F51F5303F138030421184607F0A9F807F51F
S32D0000F6681F5303F134030521184607F0A1F807F51F5303F130030621184607F099F807F51F5303F12C03072168
S32D0000F690184607F091F807F51F5303F128030821184607F089F807F51F5303F124030921184607F081F807F565
S32D0000F6B81F5303F120030A21184607F079F807F51F5303F11C030B21184607F071F807F51F5303F118030C2195
S32D0000F6E0184607F069F807F51F5303F114030D21184607F061F807F51F5303F110030E21184607F059F807F5AB
S32D0000F7081F5303F10C030F21184607F051F807F51F5303F108031021184607F049F807F51F5303F104031121C1
S32D0000F730184607F041F807F51F531221184607F03BF807F51E5303F13C031321184607F033F807F51E5303F13F
S32D0000F75838031421184607F02BF807F51E5303F134031521184607F023F807F51E5303F130031621184607F03D
S32D0000F7801BF807F51E5303F12C031721184607F013F807F51E5303F128031821184607F00BF807F51E5303F1A2
S32D0000F7A824031921184607F003F807F51E5303F120031A21184606F0FBFF07F51E5303F11C031B21184606F065
S32D0000F7D0F3FF07F51E5303F118031C21184606F0EBFF07F51E5303F114031D21184606F0E3FF07F51E5303F1D5
S32D0000F7F810031E21184606F0DBFF07F51E5303F10C031F21184606F0D3FF0021C74808F08AF807F51A5303F186
S32D0000F820200300241D46002C05DB284609F0D5FAEC35013CF7E707F5205303F12003A3F5CA73BD4A1C46154673
S32D0000F8480FCD0FC42B68236007F51A5000F12000B84B05936FF07F43049307F51A5303F10C0303930123029348
S32D0000F87001230193C923009301230122012109F07BFD07F5165303F1200300241D46002C05DB284609F0A1FA48
S32D0000F898EC35013CF7E707F5205303F12003A3F52573A54A1C4615460FCD0FC42B68236007F5165000F120006C
S32D0000F8C09E4B05936FF07F43049307F5165303F10C0303934FF48273029301230193C923009301230122012176
S32D0000F8E809F046FD07F5075303F11C0303241D46002C05DB284609F06CFAEC35013CF7E707F5205303F1200328
S32D0000F910A3F294638B4A1846114650231A4614F0C3FF07F5075000F11C00844B05934FF47F03049307F50653A2
S32D0000F93803F10C0303930123029301230193A123009328230422012109F012FD07F5025303F1200300241D46B6
S32D0000F960002C05DB284609F038FAEC35013CF7E707F5205303F12003A3F29473724A1C4615460FCD0FC42B68BB
S32D0000F988236007F5025000F120006A4B05934FF47F03049307F5025303F10C0303930123029301230193032345
S32D0000F9B00093A1230122012109F0DEFC07F5C95303F10C0307241D46002C05DB284609F004FAEC35013CF7E764
S32D0000F9D807F5205303F12003A3F69473594A18461146A0231A4614F05BFF07F58A53143B07241D46002C05DB40
S32D0000FA00284609F0EAF9EC35013CF7E707F5C153A3F294734E4A18461146A0231A4614F043FF07F51463143B2E
S32D0000FA2807241D46002C05DB284609F0D2F9EC35013CF7E707F5C153A3F69473434A18461146A0231A4614F08F
S32D0000FA502BFF07F5B073343B07241D46002C05DB284609F0BAF9EC35013CF7E707F50263A3F29473384A184603
S32D0000FA781146A0231A4614F013FF0A21354807F0B9FA072307F5205202F11C021360002307F5205202F11802C4
S32D0000FAA0136007F50263A3F61C03184680231A46002115F00FF807F5205303F11C031B68072B40F08987002384
S32D0000FAC807F5205202F11402136007F5205303F114031B68072B3FDC07F50263A3F61C0307F5205202F114024C
S32D0000FAF0126853F82230012B0FD107F5C95202F10C0207F5205303F114031B68EC2101FB03F31344184609F003
S32D0000FB182FFA07F5205303F114031B68013307F5205202F114021360CFE700BFDC19002064B2020000D7FF0003
S32D0000FB4080AA0200E8AB020078B202008CB202002CB30200CCB302006CB40200D8190020002307F5205202F151
S32D0000FB681402136007F5205303F114031B68072B28DC07F50263A3F61C0307F5205202F114021268083253F824
S32D0000FB902230012B0ED107F58A53143B07F5205202F114021268EC2101FB02F21344184609F0E2F907F52053DC
S32D0000FBB803F114031B68013307F5205202F114021360CFE7002307F5205202F11402136007F5205303F1140336
S32D0000FBE01B68072B28DC07F50263A3F61C0307F5205202F114021268103253F82230012B0ED107F51463143B88
S32D0000FC0807F5205202F114021268EC2101FB02F21344184609F0ACF907F5205303F114031B68013307F52052EE
S32D0000FC3002F114021360CFE7002307F5205202F11402136007F5205303F114031B68072B28DC07F50263A3F63A
S32D0000FC581C0307F5205202F114021268183253F82230012B0ED107F5B073343B07F5205202F114021268EC21F0
S32D0000FC8001FB02F21344184609F076F907F5205303F114031B68013307F5205202F114021360CFE707F5205309
S32D0000FCA803F118031B68032B00F24D8101A252F823F000BFCDFC00006BFD000007FE0000A1FE000007F5C95005
S32D0000FCD000F10C009C4B0593FF23049307F5C45303F10C030393012302930123019350230093502304220221F2
S32D0000FCF809F03EFB002307F5205202F11402136007F5205303F114031B68072B00F3118107F50263A3F61C03D2
S32D0000FD2007F5205202F11402126853F82230012B0FD107F5C95202F10C0207F5205303F114031B68EC2101FBFD
S32D0000FD4803F31344184609F0CBF807F5205303F114031B68013307F5205202F114021360CEE707F58A50143834
S32D0000FD70754B0593FF23049307F58553143B039301230293012301935023009350230422022109F0F1FA002361
S32D0000FD9807F5205202F11402136007F5205303F114031B68072B00F3C68007F50263A3F61C0307F5205202F171
S32D0000FDC014021268083253F82230012B0FD107F5C95202F10C0207F5205303F114031B68EC2101FB03F3134437
S32D0000FDE8184609F07DF807F5205303F114031B68013307F5205202F114021360CDE707F5146014384E4B059365
S32D0000FE10FF23049307F50A63143B039301230293012301935023009350230422022109F0A3FA002307F5205263
S32D0000FE3802F11402136007F5205303F114031B68072B7ADC07F50263A3F61C0307F5205202F11402126810324F
S32D0000FE6053F82230012B0FD107F5C95202F10C0207F5205303F114031B68EC2101FB03F31344184609F030F8E1
S32D0000FE8807F5205303F114031B68013307F5205202F114021360CEE707F5B0703438284B0593FF23049307F138
S32D0000FEB0A003143B039301230293012301935023009350230422022109F056FA002307F5205202F11402136013
S32D0000FED807F5205303F114031B68072B32DC07F50263A3F61C0307F5205202F114021268183253F82230012BA2
S32D0000FF000FD107F5C95202F10C0207F5205303F114031B68EC2101FB03F31344184608F0E3FF07F5205303F1ED
S32D0000FF2814031B68013307F5205202F114021360CEE700BF07E000BF05E000BF03E000BF00D7FF0000BF07F502
S32D0000FF50205303F118031B6807F5205202F10C02136007F5205303F118031A6807F5205303F10C031B689A42CB
S32D0000FF787FF49DAD07F5205303F118031B68002B40F0978007F1A0021C3A07F1A003183B1946984807F0F4FD26
S32D0000FFA00346002B00F07082002307F5205202F11002136007F5205303F110031B68072B00F3628207F5C952BB
S32D0000FFC802F10C0207F5205303F110031B68EC2101FB03F3D01807F50263A3F5F363196807F50263A3F29C7355
S32D0000FFF01A68002309F006F80346002B14BF01230023DBB2002B4CD007F5C95202F10C0207F5205303F1100357
S32D000100181B68EC2101FB03F3D01807F50263A3F5F363196807F50263A3F29C731B681A4609F082F807F50263C3
S32D00010040A3F61C0307F5205202F11002126853F82230002B0CD107F50263A3F61C0307F5205202F11002126841
S32D00010068012143F8221018E007F50263A3F61C0307F5205202F11002126853F82230012B0BD107F50263A3F63D
S32D000100901C0307F5205202F110021268002143F8221007F5205303F110031B68013307F5205202F11002136094
S32D000100B87CE707F5205303F118031B68012B40F09B8007F1A0021C3A07F1A003183B1946484807F055FD0346DF
S32D000100E0002B00F0D181002307F5205202F11002136007F5205303F110031B68072B00F3C38107F58A53143BF1
S32D0001010807F5205202F110021268EC2101FB02F2981807F50263A3F5F363196807F50263A3F29C731A680023B4
S32D0001013008F068FF0346002B14BF01230023DBB2002B4FD007F58A53143B07F5205202F110021268EC2101FBBE
S32D0001015802F2981807F50263A3F5F363196807F50263A3F29C731B681A4608F0E5FF07F50263A3F61C0307F52B
S32D00010180205202F110021268083253F82230002B0DD107F50263A3F61C0307F5205202F110021268083201211D
S32D000101A843F822101AE007F50263A3F61C0307F5205202F110021268083253F82230012B0CD107F50263A3F6E1
S32D000101D01C0307F5205202F1100212680832002143F8221007F5205303F110031B68013307F5205202F110028C
S32D000101F813607AE7DC19002007F5205303F118031B68022B40F0998007F1A0021C3A07F1A003183B194699485A
S32D0001022007F0B2FC0346002B00F02E81002307F5205202F11002136007F5205303F110031B68072B00F320812F
S32D0001024807F51463143B07F5205202F110021268EC2101FB02F2981807F50263A3F5F363196807F50263A3F265
S32D000102709C731A68002308F0C5FE0346002B14BF01230023DBB2002B4FD007F51463143B07F5205202F1100256
S32D000102981268EC2101FB02F2981807F50263A3F5F363196807F50263A3F29C731B681A4608F042FF07F50263BE
S32D000102C0A3F61C0307F5205202F110021268103253F82230002B0DD107F50263A3F61C0307F5205202F11002F6
S32D000102E812681032012143F822101AE007F50263A3F61C0307F5205202F110021268103253F82230012B0CD1B4
S32D0001031007F50263A3F61C0307F5205202F1100212681032002143F8221007F5205303F110031B68013307F5BF
S32D00010338205202F1100213607AE707F5205303F118031B68032B40F09B8007F1A0021C3A07F1A003183B194694
S32D00010360484807F011FC0346002B00F08D80002307F5205202F11002136007F5205303F110031B68072B7FDCDA
S32D0001038807F5B073343B07F5205202F110021268EC2101FB02F2981807F50263A3F5F363196807F50263A3F258
S32D000103B09C731A68002308F025FE0346002B14BF01230023DBB2002B4FD007F5B073343B07F5205202F11002E9
S32D000103D81268EC2101FB02F2981807F50263A3F5F363196807F50263A3F29C731B681A4608F0A2FE07F502631E
S32D00010400A3F61C0307F5205202F110021268183253F82230002B0DD107F50263A3F61C0307F5205202F11002AC
S32D0001042812681832012143F822101AE007F50263A3F61C0307F5205202F110021268183253F82230012B0CD162
S32D0001045007F50263A3F61C0307F5205202F1100212681832002143F8221007F5205303F110031B68013307F576
S32D00010478205202F1100213607BE700BFDC19002007F1A0021C3A07F1A003183B19463B4807F076FB0346002B99
S32D000104A03FF45FAD002307F5205202F11402136007F5205303F114031B68032B64DC07F5075202F11C0207F514
S32D000104C8205303F114031B68EC2101FB03F3D01807F50263A3F5F363196807F50263A3F29C731A68002308F0AB
S32D000104F089FD0346002B14BF01230023DBB2002B33D007F5075202F11C0207F5205303F114031B68EC2101FBA2
S32D0001051803F3D01807F50263A3F5F363196807F50263A3F29C731B681A4608F005FE07F5075202F11C0207F5C1
S32D00010540205303F114031B68EC2101FB03F31344184608F011FD07F5205303F114031B6807F5205202F1180259
S32D00010568136007F5205303F114031B68013307F5205202F11402136096E700BFDC19002007F50263A3F5F36336
S32D00010590196807F50263A3F29C731A6807F5025000F12000002308F02DFD0346002B14BF01230023DBB2002B4A
S32D000105B800F0D48107F50263A3F5F363196807F50263A3F29C731A6807F5025303F12003184608F0B1FD07F510
S32D000105E0025303F12003184608F0C6FC07F50263A3F61C031B68012B06D107F5205303F10803184606F0A2FA6B
S32D0001060807F50263A3F61C035B68012B06D107F5205303F10403184606F094FA07F50263A3F61C039B68012B50
S32D0001063004D107F52053184606F088FA07F50263A3F61C03DB68012B06D107F51F5303F13C03184606F07AFAB9
S32D0001065807F50263A3F61C031B69012B06D107F51F5303F13803184606F06CFA07F50263A3F61C035B69012B73
S32D0001068006D107F51F5303F13403184606F05EFA07F50263A3F61C039B69012B06D107F51F5303F1300318461C
S32D000106A806F050FA07F50263A3F61C03DB69012B06D107F51F5303F12C03184606F042FA07F50263A3F61C0349
S32D000106D01B6A012B06D107F51F5303F12803184606F034FA07F50263A3F61C035B6A012B06D107F51F5303F121
S32D000106F82403184606F026FA07F50263A3F61C039B6A012B06D107F51F5303F12003184606F018FA07F50263CB
S32D00010720A3F61C03DB6A012B06D107F51F5303F11C03184606F00AFA07F50263A3F61C031B6B012B06D107F533
S32D000107481F5303F11803184606F0FCF907F50263A3F61C035B6B012B06D107F51F5303F11403184606F0EEF922
S32D0001077007F50263A3F61C039B6B012B06D107F51F5303F11003184606F0E0F907F50263A3F61C03DB6B012B0B
S32D0001079806D107F51F5303F10C03184606F0D2F907F50263A3F61C031B6C012B06D107F51F5303F1080318465D
S32D000107C006F0C4F907F50263A3F61C035B6C012B06D107F51F5303F10403184606F0B6F907F50263A3F61C03EF
S32D000107E89B6C012B04D107F51F53184606F0AAF907F50263A3F61C03DB6C012B06D107F51E5303F13C03184614
S32D0001081006F09CF907F50263A3F61C031B6D012B06D107F51E5303F13803184606F08EF907F50263A3F61C03FA
S32D000108385B6D012B06D107F51E5303F13403184606F080F907F50263A3F61C039B6D012B06D107F51E5303F1DC
S32D000108603003184606F072F907F50263A3F61C03DB6D012B06D107F51E5303F12C03184606F064F907F5026371
S32D00010888A3F61C031B6E012B06D107F51E5303F12803184606F056F907F50263A3F61C035B6E012B06D107F5ED
S32D000108B01E5303F12403184606F048F907F50263A3F61C039B6E012B06D107F51E5303F12003184606F03AF9C8
S32D000108D807F50263A3F61C03DB6E012B06D107F51E5303F11C03184606F02CF907F50263A3F61C031B6F012BC4
S32D0001090006D107F51E5303F11803184606F01EF907F50263A3F61C035B6F012B06D107F51E5303F1140318464E
S32D0001092806F010F907F50263A3F61C039B6F012B06D107F51E5303F11003184606F002F907F50263A3F61C039F
S32D00010950DB6F012B06D107F51E5303F10C03184606F0F4F807F50263A3F5F363196807F50263A3F29C731A6824
S32D0001097807F5165000F12000002308F03FFB0346002B14BF01230023DBB2002B3FF4E5AA07F50263A3F5F36331
S32D000109A0196807F50263A3F29C731A6807F5165303F12003184608F0C3FB002307F5205202F11C0213604FF03C
S32D000109C8FF3307F5205202F118021360FFF7C5BA07F5205303F108030021184605F0B6FF07F5205303F104036A
S32D000109F00021184605F0AEFF07F520530021184605F0A8FF07F51F5303F13C030021184605F0A0FF07F51F530B
S32D00010A1803F138030021184605F098FF07F51F5303F134030021184605F090FF07F51F5303F1300300211846C5
S32D00010A4005F088FF07F51F5303F12C030021184605F080FF07F51F5303F128030021184605F078FF07F51F53A1
S32D00010A6803F124030021184605F070FF07F51F5303F120030021184605F068FF07F51F5303F11C030021184601
S32D00010A9005F060FF07F51F5303F118030021184605F058FF07F51F5303F114030021184605F050FF07F51F53F1
S32D00010AB803F110030021184605F048FF07F51F5303F10C030021184605F040FF07F51F5303F10803002118463D
S32D00010AE005F038FF07F51F5303F104030021184605F030FF07F51F530021184605F02AFF07F51E5303F13C0304
S32D00010B080021184605F022FF07F51E5303F138030021184605F01AFF07F51E5303F134030021184605F012FFE3
S32D00010B3007F51E5303F130030021184605F00AFF07F51E5303F12C030021184605F002FF07F51E5303F12803F4
S32D00010B580021184605F0FAFE07F51E5303F124030021184605F0F2FE07F51E5303F120030021184605F0EAFE36
S32D00010B8007F51E5303F11C030021184605F0E2FE07F51E5303F118030021184605F0DAFE07F51E5303F1140332
S32D00010BA80021184605F0D2FE07F51E5303F110030021184605F0CAFE07F51E5303F10C030021184605F0C2FE86
S32D00010BD007F5205303F11C031B68184607F520572037BD46B0BD00BF2DE9B043ADF6281D06AF0021714806F024
S32D00010BF89AFE714A7149724809F05AFEC7F8080900216C4806F08FFE6E4B1B68002B05D16D4809F0EDFA6B4B06
S32D00010C2001221A600021654806F081FE07F61C0300241D46002C05DB284608F0CEF8EC35013CF7E707F511633E
S32D00010C48A3F58473614A1C4615460FCD0FC42B68236007F61C005E4B05936FF07F43049307F6080303930123ED
S32D00010C70029301230193C923009301230122012108F07AFB07F21C7300241D46002C05DB284608F0A2F8EC3577
S32D00010C98013CF7E707F51163A3F502734D4A1C4615460FCD0FC42B68236007F21C70484B05936FF07F43049314
S32D00010CC007F5E16303934FF48273029301230193C923009301230122012108F04DFB07F2444302241D46002C4D
S32D00010CE805DB284608F075F8EC35013CF7E707F51163A3F5A163384A1C4615460FCD0FC40FCD0FC40FCD0FC496
S32D00010D1095E8070084E8070007F244402E4B0593FF23049307F581630393012302930123019378230093282316
S32D00010D380322012108F01CFB07F5A27302241D46002C05DB284608F044F8EC35013CF7E707F51163A3F608039E
S32D00010D60204A1C4615460FCD0FC40FCD0FC40FCD0FC495E8070084E8070007F5A270164B0593FF23049307F57D
S32D00010D888473039301230293012301932823009378230322012108F0EBFA07F11C0300241D46002C1CDB284672
S32D00010DB008F013F8EC35013CF7E700BFDC1900200CB5020010B50200641A0020EC160020441A00203CB5020046
S32D00010DD800D7FF0080AA020050B502009CB1020007F51163A3F60813824A1C4615460FCD0FC42B68236007F12A
S32D00010E001C007F4B05934FF47F03049307F108030393012302930123019302230093C9230122012108F0A8FA5C
S32D00010E280A21764806F0E6F80823C7F80C39D7F80C39082B40F0D180714809F025FC024607F5A2731146184606
S32D00010E5008F0D0F96C4809F029FC024607F5A273EC331146184608F0C5F9674809F02CFC024607F5A27303F5DC
S32D00010E78EC731146184608F0B9F93A463B1D1946604806F07DFE0346002BD0D007F51163A3F60C13196807F584
S32D00010EA01163A3F511631A6807F11C00002308F0A9F80346002B14BF01230023DBB2002B64D007F51163A3F6CE
S32D00010EC80C13196807F51163A3F511631A6807F11C00012308F092F80346002B14BF01230023DBB2002B48D045
S32D00010EF0454809F0CDFB024607F5A2731146184608F078F9404809F0D1FB024607F5A273EC331146184608F09C
S32D00010F186DF93B4809F0D4FB024607F5A27303F5EC731146184608F061F9354809F0ACFB0346184611F0F0F895
S32D00010F4004460D46304809F0B1FB0346184611F0E7F8804689462C4809F0B6FB0346184611F0DEF802460B4677
S32D00010F68CDE90423CDE90289CDE90045264AD7F80819264809F00EFE9FE707F11C03184607F0F6FF07F5116317
S32D00010F90A3F60C13196807F51163A3F511631A6807F21C70002308F02DF80346002B14BF01230023DBB2002BF0
S32D00010FB83FF43DAF07F51163A3F60C13196807F51163A3F511631A6807F21C73184608F0B3F80023C7F80C3994
S32D00010FE029E7D7F808190B4809F048FDD7F80C39184607F51167BD46BDE8B0838CB5020000D7FF00D819002066
S32D00011008441A0020DC19002020B50200641A002080B582B000AF00237B607B68082BFCD801A252F823F000BFF4
S32D00011030551001005D100100651001006D100100751001007D100100851001008D10010095100100FBF734FABB
S32D0001105878601FE0FBF750FB78601BE0FBF7AEFD786017E0FCF7A0F8786013E0FCF7A8FF78600FE0FDF7ACFEC1
S32D0001108078600BE0FEF7A8F8786007E0FEF7C0FA786003E0FFF7A8FD786000BFC1E700BF80B500AF0F4BD3F81E
S32D000110A8A03003F48053002B14BF01230023DBB2002B10D0094BD3F8A030084A23F48053C2F8A030064809F0A6
S32D000110D02FFD064B1B68054A23F40053136000BF80BD00BF00C00440641A0020C0F00F4080B400AF124B4FF4E6
S32D000110F880725A63114B5B69104A43F4005353610E4B1B680D4A43F4005313600A4B0C4A1A630C4BD3F888312F
S32D000111200A4A43F08063C2F88831084B9B68074A43F08063936000BFBD4680BC704700BF00C00440C0F00F409C
S32D0001114803010A0000E100E080B400AF334B00225A70324B98221A70304B9B79DBB203F01003002B14BF012357
S32D000111700023DBB2002B00D0F2E72A4B9B79DBB29B08DBB203F00303022B14BF01230023DBB2002B00D0F0E7E7
S32D00011198224B18221A71214B00225A71204B03F580531A461F4B53641C4B54225A711B4B9B79DBB203F0200321
S32D000111C0002B0CBF01230023DBB2002B00D0F2E7144B9B79DBB203F04003002B0CBF01230023DBB2002B00D067
S32D000111E8F2E70E4B1B78DBB20C4A03F03F03DBB213700A4B9B79DBB29B08DBB203F00303032B14BF0123002384
S32D00011210DBB2002B00D0F0E700231846BD4680BC704700BF00400640007004400000130180B500AF314B03F574
S32D0001123880539B6B2F4A43F4785302F580529363FFF752FFFFF780FF2B4B58221A602A4B1B684FF47A7202FB2A
S32D0001126003F3284A1360274B1B681A46234B03F580535B6C1B0E03F00F030133B2FBF3F31A46214B1A601D4B8C
S32D0001128803F58053DB6B1B4A43F0225302F58052D363184B03F580531B6B164A43F0006302F580521363174BCF
S32D000112B04FF480721A61642004F082FD134B5B69124A23F010035361104B00221A600F4B10225A610E4806F086
S32D000112D8CDF905F0BDFC05F01BFD0C4804F0CEFD0B4809F013FD4FF4FA6004F079FE00BF80BD00BF0070044080
S32D0001130028190020241900202C19002000D00340DC19002020190020101D002080B500AFFBF711F800BF80BDF2
S32D0001132880B500AFFBF70BF800BF80BD80B500AFFBF705F800BF80BD80B500AFFAF7FFFF00BF80BD80B500AF3F
S32D00011350FAF7F9FF00BF80BD80B500AFFAF7F3FF00BF80BD80B500AFFAF7EDFF00BF80BD80B500AFFAF7E7FF4E
S32D0001137800BF80BD80B500AFFAF7E1FF00BF80BD80B500AFFAF7DBFF00BF80BD80B500AFFAF7D5FF00BF80BD49
S32D000113A080B500AFFAF7CFFF00BF80BD80B500AFFAF7C9FF00BF80BD80B500AFFAF7C3FF00BF80BD80B500AF6F
S32D000113C8FAF7BDFF00BF80BD80B500AFFAF7B7FF00BF80BD80B500AFFAF7B1FF00BF80BD80B500AFFAF7ABFFC6
S32D000113F000BF80BD80B500AFFAF7A5FF00BF80BD80B500AFFAF79FFF00BF80BD80B500AFFAF799FF00BF80BD85
S32D0001141880B500AFFAF793FF00BF80BD80B500AFFAF78DFF00BF80BD80B500AFFAF787FF00BF80BD80B500AFAA
S32D00011440FAF781FF00BF80BD80B500AFFAF77BFF00BF80BD80B500AFFAF775FF00BF80BD80B500AFFAF76FFF3D
S32D0001146800BF80BD80B500AFFAF769FF00BF80BD80B500AFFAF763FF00BF80BD80B500AFFAF75DFF00BF80BDC0
S32D0001149080B500AFFAF757FF00BF80BD80B500AFFAF751FF00BF80BD80B500AFFAF74BFF00BF80BD80B500AFE6
S32D000114B8FAF745FF00BF80BD80B500AFFAF73FFF00BF80BD80B500AFFAF739FF00BF80BD80B500AFFAF733FFB5
S32D000114E000BF80BD80B500AFFAF72DFF00BF80BD80B500AFFAF727FF00BF80BD80B500AFFAF721FF00BF80BDFC
S32D0001150880B500AFFAF71BFF00BF80BD80B500AFFAF715FF00BF80BD80B500AFFAF70FFF00BF80BD80B500AF21
S32D00011530FAF709FF00BF80BD80B500AFFAF703FF00BF80BD80B500AFFAF7FDFE00BF80BD80B500AFFAF7F7FE2E
S32D0001155800BF80BD80B500AFFAF7F1FE00BF80BD80B500AFFAF7EBFE00BF80BD80B500AFFAF7E5FE00BF80BD3A
S32D0001158080B500AFFAF7DFFE00BF80BD80B500AFFAF7D9FE00BF80BD80B500AFFAF7D3FE00BF80BD80B500AF60
S32D000115A8FAF7CDFE00BF80BD80B500AFFAF7C7FE00BF80BD80B500AFFAF7C1FE00BF80BD80B500AFFAF7BBFEA8
S32D000115D000BF80BD80B500AFFAF7B5FE00BF80BD80B500AFFAF7AFFE00BF80BD80B500AFFAF7A9FE00BF80BD76
S32D000115F880B500AFFAF7A3FE00BF80BD80B500AFFAF79DFE00BF80BD80B500AFFAF797FE00BF80BD80B500AF9C
S32D00011620FAF791FE00BF80BD80B500AFFAF78BFE00BF80BD80B500AFFAF785FE00BF80BD80B500AFFAF77FFE1F
S32D0001164800BF80BD80B500AFFAF779FE00BF80BD80B500AFFAF773FE00BF80BD80B500AFFAF76DFE00BF80BDB1
S32D0001167080B500AFFAF767FE00BF80BD80B500AFFAF761FE00BF80BD80B500AFFAF75BFE00BF80BD80B500AFD7
S32D00011698FAF755FE00BF80BD80B500AFFAF74FFE00BF80BD80B500AFFAF749FE00BF80BD80B500AFFAF743FE97
S32D000116C000BF80BD80B500AFFAF73DFE00BF80BD80B500AFFAF737FE00BF80BD80B500AFFAF731FE00BF80BDED
S32D000116E880B500AFFAF72BFE00BF80BD80B500AFFAF725FE00BF80BD80B500AFFAF71FFE00BF80BD80B500AF13
S32D00011710FAF719FE00BF80BD80B500AFFAF713FE00BF80BD80B500AFFAF70DFE00BF80BD80B500AFFAF707FE0E
S32D0001173800BF80BD0000000080B584B000AFF8600B467A60FB72FB68FA7A1A71FB6800225A711749786811F08B
S32D0001176033FB0346002B02D0134B7B600AE04FF07E51786811F014FB0346002B02D04FF07E537B60786810F0B4
S32D00011788CBFC09A3D3E9002310F01EFD02460B461046194610F0FAFF0246FB681A60FB6818461037BD4680BD11
S32D000117B0ABAAAAAAAAAA20400000404180B582B000AF78607B685B79002B09D07B6800225A717B6819791E23FD
S32D000117D80022034804F08CFB00BF0837BD4680BD2019002080B584B000AF786039603B687F2B02DD7F23FB739E
S32D0001180008E03B6813F1800F02DA8023FB7301E03B68FB737B685B79FA7B9A4209D07B68FA7B5A717B68197943
S32D00011828FA7B1E23034804F063FB00BF1037BD4680BD00BF20190020B0B584B000AF786039603749386811F006
S32D000118509DFA0346002B02D0334B3B6008E03349386811F0B1FA0346002B01D02F4B3B60386810F055FC04462E
S32D000118780D467B681B68184610F04EFC4FF00002294B10F0CBFD02460B462046294610F09BFC02460B4610466F
S32D000118A0194610F077FF03463B604FF00001386811F080FA0346002B10D0386810F030FC17A3D3E9002310F04C
S32D000118C883FC02460B461046194610F017FF0346FB6018E0386810F01FFC4FF00002134B10F072FC02460B4611
S32D000118F0104619464FF000020D4B10F093FD02460B461046194610F0FDFE0346FB60F9687868FFF76BFF00BF9E
S32D000119181037BD46B0BD00BF52B81E85EB51F43F0000C8C20000C842000059400000604080B483B000AF0346E2
S32D000119400A46FB711346BB71BB79002B03D1134B00221A7002E0114B01221A703823FB710E4B1A78FB79134393
S32D00011968FB710D4B9B78DBB20B4A43F01003DBB29370094B9B78DBB2074A43F02003DBB29370054AFB7913714F
S32D0001199000BF0C37BD4680BC704700BFF01600200060064080B483B000AF01237B607B68312B04DC00BF7B68CF
S32D000119B801337B60F7E700BF0C37BD4680BC704780B584B000AF0346FB712A4B1B7800211846FFF7ADFF00F035
S32D000119E08FF8274AFB79137100F08AF8244B9B78DBB2234A43F00403DBB29370204B39221A7100F07DF81E4B11
S32D00011A089B78DBB21C4A23F01003DBB293701A4B9B78DBB2184A43F00803DBB29370164B1B79FB720023FB60DE
S32D00011A30FB6841F28732934203D8FB680133FB60F6E700F05DF80E4B9B78DBB20C4A23F02003DBB293700A4B0A
S32D00011A589B78DBB2084A23F01003DBB29370064B1B79FB72FFF79AFFFB7A18461037BD4680BD00BFF116002096
S32D00011A800060064080B582B000AF03460A46FB711346BB71134B1B7800211846FFF74CFF00F02EF8104AFB795C
S32D00011AA8137100F029F80E4ABB79137100F024F80B4B9B78DBB20A4A23F02003DBB29370074B9B78DBB2064A0C
S32D00011AD023F01003DBB29370FFF764FF00BF0837BD4680BDF11600200060064080B400AF024B1B781846BD46A9
S32D00011AF880BC7047F216002080B483B000AF174B1B78002B24D100237B60154BDB78DBB203F00203002B0CBF4D
S32D00011B2001230023DBB2002B0DD07B6842F21072934203DD0B4B01221A7004E07B6801337B6000BFE5E7084BB5
S32D00011B48DB78DBB2064A43F00203DBB2D37000E000BF0C37BD4680BC704700BFF21600200060064080B582B06A
S32D00011B7000AF0346FB71FB79184600F05FF800BF0837BD4680BD80B582B000AF03460A46FB711346BB7100F0FB
S32D00011B9835F8FB795B00DBB21846FFF7E3FFBB791846FFF7DFFF00F037F800BF0837BD4680BD80B500AFFF2099
S32D00011BC000F03CF80346184680BD80B584B000AF0346FB7100F016F8FB795B005BB243F001035BB2DBB2184618
S32D00011BE8FFF7C0FFFFF7E5FF0346FB7300F014F8FB7B18461037BD4680BD000080B400AF044B9B68034A43F478
S32D00011C108013936000BFBD4680BC704740F00F4080B400AF044B5B68034A43F48013536000BFBD4680BC704777
S32D00011C3840F00F4080B485B000AF0346FB710023BB73164BDB6A03F00043012B0CBF01230023DBB2002B03D03B
S32D00011C60FB7B0133FB73F0E70E4BDB6A0D4A43F00043D3620B4AFB7953630A4BDB6A03F40033002B0CBF012369
S32D00011C880023DBB2002B00D0F3E7044B9B6BBB73BB7B18461437BD4680BC704700C00A4080B582B000AF204BC5
S32D00011CB003F580531B6B1E4A43F4805302F5805213631C4B4FF480721A651B4B5B691A4A43F480135361FFF7E6
S32D00011CD8A3FF164B4FF400725A65144B4FF400729A65124B4FF40072DA65124B124A1A60104B124ADA600023BB
S32D00011D007B607B68092B06DCFF20FFF72FFF7B6801337B60F5E704A1D1E9000104F07AF900BF0837BD4680BDCA
S32D00011D289A9999999999B93F0070044000A0044040F00F4000C00A40000C00800500003E90B486B000AFF8608C
S32D00011D50B9607A60FB68534A93420AD1524B03F580535B6B504A43F4806302F58052536345E0FB684D4A93426C
S32D00011D780AD14B4B03F580535B6B494A43F4006302F58052536336E0FB68474A93420AD1434B03F580535B6BB5
S32D00011DA0414A43F4805302F58052536327E0FB68404A93420AD13C4B03F580535B6B3A4A43F4005302F580526D
S32D00011DC8536318E0FB683A4A93420AD1344B03F580539B6A324A43F4806302F58052936209E02F4B03F58053D6
S32D00011DF09B6A2D4A43F4006302F580529362FB68DB78DBB223F00C03DAB2FB68DA70FB6800229A70BB684FF45D
S32D00011E187A7203FB02F27B681B0192FBF3F39CB2FB681B78DBB223F01F03FB75230A9BB2DBB203F01F03DAB22D
S32D00011E40FB7D1343DAB2FB681A70E2B2FB685A70BB684FF4FA4203FB02F27B681B0192FBF3F39AB263019BB268
S32D00011E68D31A9CB2FB689B7ADBB223F01F03FB75E3B203F01F03DAB2FB7D1343DAB2FB689A72FB68DB78DBB224
S32D00011E9043F00C03DAB2FB68DA7000BF1837BD4690BC704700A006400070044000B0064000C0064000D00640E8
S32D00011EB800A00E4080B483B000AF78607B681B79DBB203F02003002B0CBF01230023DBB2002B00D0F2E77B6884
S32D00011EE0DB79DBB218460C37BD4680BC704780B483B000AF78600B46FB707B681B79DBB25BB2DB43DBB2DB0911
S32D00011F08DBB2002B00D0F4E77B68FA78DA7100BF0C37BD4680BC704780B487B000AFF860B9607A60FB687B610B
S32D00011F30BB683B617B685A1E7A60002B14BF01230023DBB2002B08D03A69531C3B617B69591C796112781A70C4
S32D00011F58ECE700BF1C37BD4680BC704780B487B000AFF860B9607A60FB687B617B685A1E7A60002B14BF012384
S32D00011F800023DBB2002B06D07B695A1C7A61BA68D2B21A70EEE700BF1C37BD4680BC704780B489B000AFF860CB
S32D00011FA8B9607A60FB68FB61BB68BB6100237B617B685A1E7A60002B0FD0FB695A1CFA611B781946BB695A1C1A
S32D00011FD0BA611B78CB1A7B617B69002B01D1012300E00023002B00D0E6E77B6918462437BD4680BC704780B4DC
S32D00011FF883B000AF786039607B681B78002B09D07B681B781A463B68934203D07B6801337B60F1E77B681B788C
S32D0001202018460C37BD4680BC704780B584B000AF786039607B681B6BFB60FA683B689A4252D07B681B79002B08
S32D0001204835D07B6858787B6803F134010123FA6803F050FD0346002B14BF01230023DBB2002B01D001233CE088
S32D000120707B6800221A717B685A6A7B681B6A1344FA689A4217D27B68DB78FB72FB7A012B11D97B681B6AFA682C
S32D000120981344FB607B6858787B6803F134010123FA6803F027FDFB7A013BFB72EAE73B68002B15D07B685878B6
S32D000120C07B6803F1340101233A6803F033FC0346002B14BF01230023DBB2002B01D0012303E07B683A681A63DD
S32D000120E8002318461037BD4680BD80B584B000AF786000217868FFF794FF0346FB73FB7B002B40F093807B68C9
S32D000121101B78032B7DD17B685B79002B79D07B6800221A637B6834334FF4007200211846FFF718FF7B685522FF
S32D0001213883F832227B68AA2283F833227B68522283F834207B68522283F835207B68612283F836207B68412260
S32D0001216083F837207B68722283F818227B68722283F819227B68412283F81A227B68612283F81B227B681B69A3
S32D00012188DAB27B6883F81C227B681B699BB21B0A9BB2DAB27B6883F81D227B681B691B0CDAB27B6883F81E22F9
S32D000121B07B681B691B0EDAB27B6883F81F227B68DB68DAB27B6883F820227B68DB689BB21B0A9BB2DAB27B689F
S32D000121D883F821227B68DB681B0CDAB27B6883F822227B68DB681B0EDAB27B6883F823227B6858787B6803F197
S32D0001220034017B685A69012303F078FC7B6800225A717B685B7800220021184603F03AFD0346002B14BF01238D
S32D000122280023DBB2002B01D00123FB73FB7B18461037BD4680BD80B483B000AF786039603B68023B3B607B6809
S32D00012250DB69023B3A689A4201D3002308E07B689B781A463B6803FB02F27B68DB6A134418460C37BD4680BC37
S32D00012278704780B586B000AF786039603B68012B04D97B68DB693A689A4201D30123B5E07B681B78032B7AD029
S32D000122A0032B00F3AD80012B02D0022B4DD0A7E03B683B613B695B083A6913443B617B685A6A3B695B0A13440F
S32D000122C819467868FFF7ADFE0346002B14BF01230023DBB2002B40F088803B69C3F308037A68134493F83430FC
S32D000122F0FB603B6901333B617B685A6A3B695B0A134419467868FFF790FE0346002B14BF01230023DBB2002BE0
S32D000123186DD13B69C3F308037A68134493F834301B021A46FB681343FB603B6803F00103002B02D0FB681B091C
S32D0001234060E0FB68C3F30B035CE07B685A6A3B681B0A134419467868FFF767FE0346002B14BF01230023DBB250
S32D00012368002B46D13B685B0003F4FF7330337A68134404337B617B6901331B781B021AB27B691B781BB21343C0
S32D000123901BB29BB236E07B685A6A3B68DB09134419467868FFF741FE0346002B14BF01230023DBB2002B22D1BC
S32D000123B83B689B0003F4FE7330337A68134404337B617B6903331B781A067B6902331B781B0413437A6901329D
S32D000123E01278120213437A691278134323F0704308E000BF04E000BF02E000BF00E000BF4FF0FF3318461837A9
S32D00012408BD4680BD80B588B000AFF860B9607A60BB68012B04D9FB68DB69BA689A4202D30223FB77EEE0FB6890
S32D000124301B78032B00F09780032B00F3DA80012B02D0022B6BD0D4E0BB687B617B695B087A6913447B61FB6861
S32D000124585A6A7B695B0A13441946F868FFF7E1FD0346FB77FB7F002B40F0C2807B69C3F308033033FA681344CB
S32D000124800433BB61BB6803F00103002B0DD0BB691B785BB203F00F035AB27B68DBB21B015BB213435BB2DBB25A
S32D000124A801E07B68DBB2BA6913707B6901337B61FB6801221A71FB685A6A7B695B0A13441946F868FFF7ADFDE3
S32D000124D00346FB77FB7F002B40F090807B69C3F308033033FA6813440433BB61BB6803F00103002B03D07B682E
S32D000124F81B09DBB20CE0BB691B7823F00F03DAB27B681B0ADBB203F00F03DBB21343DBB2BA69137073E0FB684A
S32D000125205A6ABB681B0A13441946F868FFF77DFD0346FB77FB7F002B62D1BB685B0003F4FF733033FA68134464
S32D000125480433BB617B68DAB2BB691A707B689BB21B0A9AB2BB690133D2B21A704FE0FB685A6ABB68DB09134439
S32D000125701946F868FFF759FD0346FB77FB7F002B40D1BB689B0003F4FE733033FA6813440433BB61BB690333D1
S32D000125981B781A06BB6902331B781B041343BA690132127812021343BA691278134303F070437A6813437B60FA
S32D000125C07B68DAB2BB691A707B689BB21B0A9AB2BB690133D2B21A707B681A0CBB690233D2B21A707B681A0E4D
S32D000125E8BB690333D2B21A7009E00223FB7706E000BF04E000BF02E000BF00E000BFFB6801221A71FB7F18466B
S32D000126102037BD4680BD80B584B000AF786039603B68012B04D97B68DB693A689A4202D30223FB7338E0002387
S32D00012638FB737B68DB693A689A4231D239687868FFF717FEB860BB68002B26D0BB68012B02D10223FB7323E0BD
S32D00012660BB68B3F1FF3F02D10123FB731CE0002239687868FFF7CAFE0346FB73FB7B002B11D17B681B69B3F13F
S32D00012688FF3F07D07B681B695A1C7B681A617B6801225A71BB683B60CBE700BF00E000BFFB7B18461037BD4616
S32D000126B080BD80B586B000AF786039603B68002B0DD17B68DB683B613B69002B04D07B68DB693A699A4215D394
S32D000126D801233B6112E039687868FFF7CAFDB860BB68012B01D8012364E07B68DB69BA689A4201D2BB685DE0E3
S32D000127003B683B613B697B617B6901337B617B68DB697A699A4207D302237B617A693B699A4201D9002349E0AD
S32D0001272879697868FFF7A5FDB860BB68002B0ED0BB68B3F1FF3F02D0BB68012B01D1BB6838E07A693B699A424E
S32D00012750DAD1002332E000BF6FF0704279697868FFF754FE0346FB73FB7B002B09D13B68002B06D07A69396846
S32D000127787868FFF747FE0346FB73FB7B002B10D17B687A69DA607B681B69B3F1FF3F10D07B681B695A1E7B68F3
S32D000127A01A617B6801225A7107E0FB7B012B02D14FF0FF3300E001237B617B6918461837BD4680BD80B487B0D5
S32D000127C800AF786039607B685B6A04333B613B685B0A7A6812689278B3FBF2F37B613B691A1D3A611B68FB6016
S32D000127F0FB68002B01D1002310E07A69FB689A4207D37A69FB68D31A7B613B6904333B61E9E700BF3B691A6810
S32D000128187B69134418461C37BD4680BC704780B584B000AF78600B467B807B687A88DA807B689B68FB60FB6890
S32D00012840012B05D07B681B68DB69FA689A4201D3022364E0FB68002B08D17B681B681B78032B03D17B681B687B
S32D000128689B6AFB60FB68002B13D17B68FA68DA607B681B681B897A889A4201D302234AE07B681B689A6A7B8878
S32D000128901B091A447B681A6135E07B681B689B789BB21B017B817A887B899A421CD37B681B68F9681846FFF75A
S32D000128B8E0FCF860FB68B3F1FF3F01D101232AE0FB68012B05D97B681B68DB69FA689A4201D302231FE07A8829
S32D000128E07B89D31A7B80DEE77B68FA68DA607B681B68F9681846FFF7A2FC02467B881B091A447B681A617B68D2
S32D000129081B6803F134027B8803F00F035B011A447B685A61002318461037BD4680BD90B585B000AF78603960F1
S32D000129307B68DB8801333B813B89002B03D07B681B69002B01D10423C4E03B8903F00F03002B40F0B0807B681A
